{
	"data": {
		"bytecode": {
			"linkReferences": {},
			"object": "6080604052348015600e575f80fd5b50610c748061001c5f395ff3fe608060405234801561000f575f80fd5b5060043610610055575f3560e01c80633a1b3d31146100595780635e2a3dd51461007557806395ffebf5146100a5578063bc8bc2b4146100c1578063dd68afb6146100f3575b5f80fd5b610073600480360381019061006e9190610548565b610125565b005b61008f600480360381019061008a9190610586565b6101a7565b60405161009c91906105c0565b60405180910390f35b6100bf60048036038101906100ba9190610715565b6101c7565b005b6100db60048036038101906100d69190610586565b6102d5565b6040516100ea9392919061082f565b60405180910390f35b61010d60048036038101906101089190610586565b61038c565b60405161011c9392919061082f565b60405180910390f35b6002548210610169576040517f08c379a0000000000000000000000000000000000000000000000000000000008152600401610160906108b5565b60405180910390fd5b805f808481526020019081526020015f206002015f6101000a81548160ff0219169083600281111561019e5761019d6107bc565b5b02179055505050565b600181815481106101b6575f80fd5b905f5260205f20015f915090505481565b604051806060016040528060025481526020018281526020015f60028111156101f3576101f26107bc565b5b8152505f8060025481526020019081526020015f205f820151815f015560208201518160010190816102259190610acd565b506040820151816002015f6101000a81548160ff021916908360028111156102505761024f6107bc565b5b02179055509050506001600254908060018154018082558091505060019003905f5260205f20015f90919091909150557f606222d2d9b2ffe82e59c226d772a363312cfce0027119e88e27c4db155e882d600254826040516102b3929190610b9c565b60405180910390a160025f8154809291906102cd90610bf7565b919050555050565b5f602052805f5260405f205f91509050805f0154908060010180546102f990610900565b80601f016020809104026020016040519081016040528092919081815260200182805461032590610900565b80156103705780601f1061034757610100808354040283529160200191610370565b820191905f5260205f20905b81548152906001019060200180831161035357829003601f168201915b505050505090806002015f9054906101000a900460ff16905083565b5f60605f60025484106103d4576040517f08c379a00000000000000000000000000000000000000000000000000000000081526004016103cb906108b5565b60405180910390fd5b5f805f8681526020019081526020015f206040518060600160405290815f820154815260200160018201805461040990610900565b80601f016020809104026020016040519081016040528092919081815260200182805461043590610900565b80156104805780601f1061045757610100808354040283529160200191610480565b820191905f5260205f20905b81548152906001019060200180831161046357829003601f168201915b50505050508152602001600282015f9054906101000a900460ff1660028111156104ad576104ac6107bc565b5b60028111156104bf576104be6107bc565b5b815250509050805f015181602001518260400151935093509350509193909250565b5f604051905090565b5f80fd5b5f80fd5b5f819050919050565b610504816104f2565b811461050e575f80fd5b50565b5f8135905061051f816104fb565b92915050565b60038110610531575f80fd5b50565b5f8135905061054281610525565b92915050565b5f806040838503121561055e5761055d6104ea565b5b5f61056b85828601610511565b925050602061057c85828601610534565b9150509250929050565b5f6020828403121561059b5761059a6104ea565b5b5f6105a884828501610511565b91505092915050565b6105ba816104f2565b82525050565b5f6020820190506105d35f8301846105b1565b92915050565b5f80fd5b5f80fd5b5f601f19601f8301169050919050565b7f4e487b71000000000000000000000000000000000000000000000000000000005f52604160045260245ffd5b610627826105e1565b810181811067ffffffffffffffff82111715610646576106456105f1565b5b80604052505050565b5f6106586104e1565b9050610664828261061e565b919050565b5f67ffffffffffffffff821115610683576106826105f1565b5b61068c826105e1565b9050602081019050919050565b828183375f83830152505050565b5f6106b96106b484610669565b61064f565b9050828152602081018484840111156106d5576106d46105dd565b5b6106e0848285610699565b509392505050565b5f82601f8301126106fc576106fb6105d9565b5b813561070c8482602086016106a7565b91505092915050565b5f6020828403121561072a576107296104ea565b5b5f82013567ffffffffffffffff811115610747576107466104ee565b5b610753848285016106e8565b91505092915050565b5f81519050919050565b5f82825260208201905092915050565b8281835e5f83830152505050565b5f61078e8261075c565b6107988185610766565b93506107a8818560208601610776565b6107b1816105e1565b840191505092915050565b7f4e487b71000000000000000000000000000000000000000000000000000000005f52602160045260245ffd5b600381106107fa576107f96107bc565b5b50565b5f81905061080a826107e9565b919050565b5f610819826107fd565b9050919050565b6108298161080f565b82525050565b5f6060820190506108425f8301866105b1565b81810360208301526108548185610784565b90506108636040830184610820565b949350505050565b7f546f646f20646f6573206e6f74206578697374000000000000000000000000005f82015250565b5f61089f601383610766565b91506108aa8261086b565b602082019050919050565b5f6020820190508181035f8301526108cc81610893565b9050919050565b7f4e487b71000000000000000000000000000000000000000000000000000000005f52602260045260245ffd5b5f600282049050600182168061091757607f821691505b60208210810361092a576109296108d3565b5b50919050565b5f819050815f5260205f209050919050565b5f6020601f8301049050919050565b5f82821b905092915050565b5f6008830261098c7fffffffffffffffffffffffffffffffffffffffffffffffffffffffffffffffff82610951565b6109968683610951565b95508019841693508086168417925050509392505050565b5f819050919050565b5f6109d16109cc6109c7846104f2565b6109ae565b6104f2565b9050919050565b5f819050919050565b6109ea836109b7565b6109fe6109f6826109d8565b84845461095d565b825550505050565b5f90565b610a12610a06565b610a1d8184846109e1565b505050565b5b81811015610a4057610a355f82610a0a565b600181019050610a23565b5050565b601f821115610a8557610a5681610930565b610a5f84610942565b81016020851015610a6e578190505b610a82610a7a85610942565b830182610a22565b50505b505050565b5f82821c905092915050565b5f610aa55f1984600802610a8a565b1980831691505092915050565b5f610abd8383610a96565b9150826002028217905092915050565b610ad68261075c565b67ffffffffffffffff811115610aef57610aee6105f1565b5b610af98254610900565b610b04828285610a44565b5f60209050601f831160018114610b35575f8415610b23578287015190505b610b2d8582610ab2565b865550610b94565b601f198416610b4386610930565b5f5b82811015610b6a57848901518255600182019150602085019450602081019050610b45565b86831015610b875784890151610b83601f891682610a96565b8355505b6001600288020188555050505b505050505050565b5f604082019050610baf5f8301856105b1565b8181036020830152610bc18184610784565b90509392505050565b7f4e487b71000000000000000000000000000000000000000000000000000000005f52601160045260245ffd5b5f610c01826104f2565b91507fffffffffffffffffffffffffffffffffffffffffffffffffffffffffffffffff8203610c3357610c32610bca565b5b60018201905091905056fea2646970667358221220fbb8a0183f3523ef0f9b17012cffadd512976389b27678f7b555200e4b03e26064736f6c634300081a0033",
			"opcodes": "PUSH1 0x80 PUSH1 0x40 MSTORE CALLVALUE DUP1 ISZERO PUSH1 0xE JUMPI PUSH0 DUP1 REVERT JUMPDEST POP PUSH2 0xC74 DUP1 PUSH2 0x1C PUSH0 CODECOPY PUSH0 RETURN INVALID PUSH1 0x80 PUSH1 0x40 MSTORE CALLVALUE DUP1 ISZERO PUSH2 0xF JUMPI PUSH0 DUP1 REVERT JUMPDEST POP PUSH1 0x4 CALLDATASIZE LT PUSH2 0x55 JUMPI PUSH0 CALLDATALOAD PUSH1 0xE0 SHR DUP1 PUSH4 0x3A1B3D31 EQ PUSH2 0x59 JUMPI DUP1 PUSH4 0x5E2A3DD5 EQ PUSH2 0x75 JUMPI DUP1 PUSH4 0x95FFEBF5 EQ PUSH2 0xA5 JUMPI DUP1 PUSH4 0xBC8BC2B4 EQ PUSH2 0xC1 JUMPI DUP1 PUSH4 0xDD68AFB6 EQ PUSH2 0xF3 JUMPI JUMPDEST PUSH0 DUP1 REVERT JUMPDEST PUSH2 0x73 PUSH1 0x4 DUP1 CALLDATASIZE SUB DUP2 ADD SWAP1 PUSH2 0x6E SWAP2 SWAP1 PUSH2 0x548 JUMP JUMPDEST PUSH2 0x125 JUMP JUMPDEST STOP JUMPDEST PUSH2 0x8F PUSH1 0x4 DUP1 CALLDATASIZE SUB DUP2 ADD SWAP1 PUSH2 0x8A SWAP2 SWAP1 PUSH2 0x586 JUMP JUMPDEST PUSH2 0x1A7 JUMP JUMPDEST PUSH1 0x40 MLOAD PUSH2 0x9C SWAP2 SWAP1 PUSH2 0x5C0 JUMP JUMPDEST PUSH1 0x40 MLOAD DUP1 SWAP2 SUB SWAP1 RETURN JUMPDEST PUSH2 0xBF PUSH1 0x4 DUP1 CALLDATASIZE SUB DUP2 ADD SWAP1 PUSH2 0xBA SWAP2 SWAP1 PUSH2 0x715 JUMP JUMPDEST PUSH2 0x1C7 JUMP JUMPDEST STOP JUMPDEST PUSH2 0xDB PUSH1 0x4 DUP1 CALLDATASIZE SUB DUP2 ADD SWAP1 PUSH2 0xD6 SWAP2 SWAP1 PUSH2 0x586 JUMP JUMPDEST PUSH2 0x2D5 JUMP JUMPDEST PUSH1 0x40 MLOAD PUSH2 0xEA SWAP4 SWAP3 SWAP2 SWAP1 PUSH2 0x82F JUMP JUMPDEST PUSH1 0x40 MLOAD DUP1 SWAP2 SUB SWAP1 RETURN JUMPDEST PUSH2 0x10D PUSH1 0x4 DUP1 CALLDATASIZE SUB DUP2 ADD SWAP1 PUSH2 0x108 SWAP2 SWAP1 PUSH2 0x586 JUMP JUMPDEST PUSH2 0x38C JUMP JUMPDEST PUSH1 0x40 MLOAD PUSH2 0x11C SWAP4 SWAP3 SWAP2 SWAP1 PUSH2 0x82F JUMP JUMPDEST PUSH1 0x40 MLOAD DUP1 SWAP2 SUB SWAP1 RETURN JUMPDEST PUSH1 0x2 SLOAD DUP3 LT PUSH2 0x169 JUMPI PUSH1 0x40 MLOAD PUSH32 0x8C379A000000000000000000000000000000000000000000000000000000000 DUP2 MSTORE PUSH1 0x4 ADD PUSH2 0x160 SWAP1 PUSH2 0x8B5 JUMP JUMPDEST PUSH1 0x40 MLOAD DUP1 SWAP2 SUB SWAP1 REVERT JUMPDEST DUP1 PUSH0 DUP1 DUP5 DUP2 MSTORE PUSH1 0x20 ADD SWAP1 DUP2 MSTORE PUSH1 0x20 ADD PUSH0 KECCAK256 PUSH1 0x2 ADD PUSH0 PUSH2 0x100 EXP DUP2 SLOAD DUP2 PUSH1 0xFF MUL NOT AND SWAP1 DUP4 PUSH1 0x2 DUP2 GT ISZERO PUSH2 0x19E JUMPI PUSH2 0x19D PUSH2 0x7BC JUMP JUMPDEST JUMPDEST MUL OR SWAP1 SSTORE POP POP POP JUMP JUMPDEST PUSH1 0x1 DUP2 DUP2 SLOAD DUP2 LT PUSH2 0x1B6 JUMPI PUSH0 DUP1 REVERT JUMPDEST SWAP1 PUSH0 MSTORE PUSH1 0x20 PUSH0 KECCAK256 ADD PUSH0 SWAP2 POP SWAP1 POP SLOAD DUP2 JUMP JUMPDEST PUSH1 0x40 MLOAD DUP1 PUSH1 0x60 ADD PUSH1 0x40 MSTORE DUP1 PUSH1 0x2 SLOAD DUP2 MSTORE PUSH1 0x20 ADD DUP3 DUP2 MSTORE PUSH1 0x20 ADD PUSH0 PUSH1 0x2 DUP2 GT ISZERO PUSH2 0x1F3 JUMPI PUSH2 0x1F2 PUSH2 0x7BC JUMP JUMPDEST JUMPDEST DUP2 MSTORE POP PUSH0 DUP1 PUSH1 0x2 SLOAD DUP2 MSTORE PUSH1 0x20 ADD SWAP1 DUP2 MSTORE PUSH1 0x20 ADD PUSH0 KECCAK256 PUSH0 DUP3 ADD MLOAD DUP2 PUSH0 ADD SSTORE PUSH1 0x20 DUP3 ADD MLOAD DUP2 PUSH1 0x1 ADD SWAP1 DUP2 PUSH2 0x225 SWAP2 SWAP1 PUSH2 0xACD JUMP JUMPDEST POP PUSH1 0x40 DUP3 ADD MLOAD DUP2 PUSH1 0x2 ADD PUSH0 PUSH2 0x100 EXP DUP2 SLOAD DUP2 PUSH1 0xFF MUL NOT AND SWAP1 DUP4 PUSH1 0x2 DUP2 GT ISZERO PUSH2 0x250 JUMPI PUSH2 0x24F PUSH2 0x7BC JUMP JUMPDEST JUMPDEST MUL OR SWAP1 SSTORE POP SWAP1 POP POP PUSH1 0x1 PUSH1 0x2 SLOAD SWAP1 DUP1 PUSH1 0x1 DUP2 SLOAD ADD DUP1 DUP3 SSTORE DUP1 SWAP2 POP POP PUSH1 0x1 SWAP1 SUB SWAP1 PUSH0 MSTORE PUSH1 0x20 PUSH0 KECCAK256 ADD PUSH0 SWAP1 SWAP2 SWAP1 SWAP2 SWAP1 SWAP2 POP SSTORE PUSH32 0x606222D2D9B2FFE82E59C226D772A363312CFCE0027119E88E27C4DB155E882D PUSH1 0x2 SLOAD DUP3 PUSH1 0x40 MLOAD PUSH2 0x2B3 SWAP3 SWAP2 SWAP1 PUSH2 0xB9C JUMP JUMPDEST PUSH1 0x40 MLOAD DUP1 SWAP2 SUB SWAP1 LOG1 PUSH1 0x2 PUSH0 DUP2 SLOAD DUP1 SWAP3 SWAP2 SWAP1 PUSH2 0x2CD SWAP1 PUSH2 0xBF7 JUMP JUMPDEST SWAP2 SWAP1 POP SSTORE POP POP JUMP JUMPDEST PUSH0 PUSH1 0x20 MSTORE DUP1 PUSH0 MSTORE PUSH1 0x40 PUSH0 KECCAK256 PUSH0 SWAP2 POP SWAP1 POP DUP1 PUSH0 ADD SLOAD SWAP1 DUP1 PUSH1 0x1 ADD DUP1 SLOAD PUSH2 0x2F9 SWAP1 PUSH2 0x900 JUMP JUMPDEST DUP1 PUSH1 0x1F ADD PUSH1 0x20 DUP1 SWAP2 DIV MUL PUSH1 0x20 ADD PUSH1 0x40 MLOAD SWAP1 DUP2 ADD PUSH1 0x40 MSTORE DUP1 SWAP3 SWAP2 SWAP1 DUP2 DUP2 MSTORE PUSH1 0x20 ADD DUP3 DUP1 SLOAD PUSH2 0x325 SWAP1 PUSH2 0x900 JUMP JUMPDEST DUP1 ISZERO PUSH2 0x370 JUMPI DUP1 PUSH1 0x1F LT PUSH2 0x347 JUMPI PUSH2 0x100 DUP1 DUP4 SLOAD DIV MUL DUP4 MSTORE SWAP2 PUSH1 0x20 ADD SWAP2 PUSH2 0x370 JUMP JUMPDEST DUP3 ADD SWAP2 SWAP1 PUSH0 MSTORE PUSH1 0x20 PUSH0 KECCAK256 SWAP1 JUMPDEST DUP2 SLOAD DUP2 MSTORE SWAP1 PUSH1 0x1 ADD SWAP1 PUSH1 0x20 ADD DUP1 DUP4 GT PUSH2 0x353 JUMPI DUP3 SWAP1 SUB PUSH1 0x1F AND DUP3 ADD SWAP2 JUMPDEST POP POP POP POP POP SWAP1 DUP1 PUSH1 0x2 ADD PUSH0 SWAP1 SLOAD SWAP1 PUSH2 0x100 EXP SWAP1 DIV PUSH1 0xFF AND SWAP1 POP DUP4 JUMP JUMPDEST PUSH0 PUSH1 0x60 PUSH0 PUSH1 0x2 SLOAD DUP5 LT PUSH2 0x3D4 JUMPI PUSH1 0x40 MLOAD PUSH32 0x8C379A000000000000000000000000000000000000000000000000000000000 DUP2 MSTORE PUSH1 0x4 ADD PUSH2 0x3CB SWAP1 PUSH2 0x8B5 JUMP JUMPDEST PUSH1 0x40 MLOAD DUP1 SWAP2 SUB SWAP1 REVERT JUMPDEST PUSH0 DUP1 PUSH0 DUP7 DUP2 MSTORE PUSH1 0x20 ADD SWAP1 DUP2 MSTORE PUSH1 0x20 ADD PUSH0 KECCAK256 PUSH1 0x40 MLOAD DUP1 PUSH1 0x60 ADD PUSH1 0x40 MSTORE SWAP1 DUP2 PUSH0 DUP3 ADD SLOAD DUP2 MSTORE PUSH1 0x20 ADD PUSH1 0x1 DUP3 ADD DUP1 SLOAD PUSH2 0x409 SWAP1 PUSH2 0x900 JUMP JUMPDEST DUP1 PUSH1 0x1F ADD PUSH1 0x20 DUP1 SWAP2 DIV MUL PUSH1 0x20 ADD PUSH1 0x40 MLOAD SWAP1 DUP2 ADD PUSH1 0x40 MSTORE DUP1 SWAP3 SWAP2 SWAP1 DUP2 DUP2 MSTORE PUSH1 0x20 ADD DUP3 DUP1 SLOAD PUSH2 0x435 SWAP1 PUSH2 0x900 JUMP JUMPDEST DUP1 ISZERO PUSH2 0x480 JUMPI DUP1 PUSH1 0x1F LT PUSH2 0x457 JUMPI PUSH2 0x100 DUP1 DUP4 SLOAD DIV MUL DUP4 MSTORE SWAP2 PUSH1 0x20 ADD SWAP2 PUSH2 0x480 JUMP JUMPDEST DUP3 ADD SWAP2 SWAP1 PUSH0 MSTORE PUSH1 0x20 PUSH0 KECCAK256 SWAP1 JUMPDEST DUP2 SLOAD DUP2 MSTORE SWAP1 PUSH1 0x1 ADD SWAP1 PUSH1 0x20 ADD DUP1 DUP4 GT PUSH2 0x463 JUMPI DUP3 SWAP1 SUB PUSH1 0x1F AND DUP3 ADD SWAP2 JUMPDEST POP POP POP POP POP DUP2 MSTORE PUSH1 0x20 ADD PUSH1 0x2 DUP3 ADD PUSH0 SWAP1 SLOAD SWAP1 PUSH2 0x100 EXP SWAP1 DIV PUSH1 0xFF AND PUSH1 0x2 DUP2 GT ISZERO PUSH2 0x4AD JUMPI PUSH2 0x4AC PUSH2 0x7BC JUMP JUMPDEST JUMPDEST PUSH1 0x2 DUP2 GT ISZERO PUSH2 0x4BF JUMPI PUSH2 0x4BE PUSH2 0x7BC JUMP JUMPDEST JUMPDEST DUP2 MSTORE POP POP SWAP1 POP DUP1 PUSH0 ADD MLOAD DUP2 PUSH1 0x20 ADD MLOAD DUP3 PUSH1 0x40 ADD MLOAD SWAP4 POP SWAP4 POP SWAP4 POP POP SWAP2 SWAP4 SWAP1 SWAP3 POP JUMP JUMPDEST PUSH0 PUSH1 0x40 MLOAD SWAP1 POP SWAP1 JUMP JUMPDEST PUSH0 DUP1 REVERT JUMPDEST PUSH0 DUP1 REVERT JUMPDEST PUSH0 DUP2 SWAP1 POP SWAP2 SWAP1 POP JUMP JUMPDEST PUSH2 0x504 DUP2 PUSH2 0x4F2 JUMP JUMPDEST DUP2 EQ PUSH2 0x50E JUMPI PUSH0 DUP1 REVERT JUMPDEST POP JUMP JUMPDEST PUSH0 DUP2 CALLDATALOAD SWAP1 POP PUSH2 0x51F DUP2 PUSH2 0x4FB JUMP JUMPDEST SWAP3 SWAP2 POP POP JUMP JUMPDEST PUSH1 0x3 DUP2 LT PUSH2 0x531 JUMPI PUSH0 DUP1 REVERT JUMPDEST POP JUMP JUMPDEST PUSH0 DUP2 CALLDATALOAD SWAP1 POP PUSH2 0x542 DUP2 PUSH2 0x525 JUMP JUMPDEST SWAP3 SWAP2 POP POP JUMP JUMPDEST PUSH0 DUP1 PUSH1 0x40 DUP4 DUP6 SUB SLT ISZERO PUSH2 0x55E JUMPI PUSH2 0x55D PUSH2 0x4EA JUMP JUMPDEST JUMPDEST PUSH0 PUSH2 0x56B DUP6 DUP3 DUP7 ADD PUSH2 0x511 JUMP JUMPDEST SWAP3 POP POP PUSH1 0x20 PUSH2 0x57C DUP6 DUP3 DUP7 ADD PUSH2 0x534 JUMP JUMPDEST SWAP2 POP POP SWAP3 POP SWAP3 SWAP1 POP JUMP JUMPDEST PUSH0 PUSH1 0x20 DUP3 DUP5 SUB SLT ISZERO PUSH2 0x59B JUMPI PUSH2 0x59A PUSH2 0x4EA JUMP JUMPDEST JUMPDEST PUSH0 PUSH2 0x5A8 DUP5 DUP3 DUP6 ADD PUSH2 0x511 JUMP JUMPDEST SWAP2 POP POP SWAP3 SWAP2 POP POP JUMP JUMPDEST PUSH2 0x5BA DUP2 PUSH2 0x4F2 JUMP JUMPDEST DUP3 MSTORE POP POP JUMP JUMPDEST PUSH0 PUSH1 0x20 DUP3 ADD SWAP1 POP PUSH2 0x5D3 PUSH0 DUP4 ADD DUP5 PUSH2 0x5B1 JUMP JUMPDEST SWAP3 SWAP2 POP POP JUMP JUMPDEST PUSH0 DUP1 REVERT JUMPDEST PUSH0 DUP1 REVERT JUMPDEST PUSH0 PUSH1 0x1F NOT PUSH1 0x1F DUP4 ADD AND SWAP1 POP SWAP2 SWAP1 POP JUMP JUMPDEST PUSH32 0x4E487B7100000000000000000000000000000000000000000000000000000000 PUSH0 MSTORE PUSH1 0x41 PUSH1 0x4 MSTORE PUSH1 0x24 PUSH0 REVERT JUMPDEST PUSH2 0x627 DUP3 PUSH2 0x5E1 JUMP JUMPDEST DUP2 ADD DUP2 DUP2 LT PUSH8 0xFFFFFFFFFFFFFFFF DUP3 GT OR ISZERO PUSH2 0x646 JUMPI PUSH2 0x645 PUSH2 0x5F1 JUMP JUMPDEST JUMPDEST DUP1 PUSH1 0x40 MSTORE POP POP POP JUMP JUMPDEST PUSH0 PUSH2 0x658 PUSH2 0x4E1 JUMP JUMPDEST SWAP1 POP PUSH2 0x664 DUP3 DUP3 PUSH2 0x61E JUMP JUMPDEST SWAP2 SWAP1 POP JUMP JUMPDEST PUSH0 PUSH8 0xFFFFFFFFFFFFFFFF DUP3 GT ISZERO PUSH2 0x683 JUMPI PUSH2 0x682 PUSH2 0x5F1 JUMP JUMPDEST JUMPDEST PUSH2 0x68C DUP3 PUSH2 0x5E1 JUMP JUMPDEST SWAP1 POP PUSH1 0x20 DUP2 ADD SWAP1 POP SWAP2 SWAP1 POP JUMP JUMPDEST DUP3 DUP2 DUP4 CALLDATACOPY PUSH0 DUP4 DUP4 ADD MSTORE POP POP POP JUMP JUMPDEST PUSH0 PUSH2 0x6B9 PUSH2 0x6B4 DUP5 PUSH2 0x669 JUMP JUMPDEST PUSH2 0x64F JUMP JUMPDEST SWAP1 POP DUP3 DUP2 MSTORE PUSH1 0x20 DUP2 ADD DUP5 DUP5 DUP5 ADD GT ISZERO PUSH2 0x6D5 JUMPI PUSH2 0x6D4 PUSH2 0x5DD JUMP JUMPDEST JUMPDEST PUSH2 0x6E0 DUP5 DUP3 DUP6 PUSH2 0x699 JUMP JUMPDEST POP SWAP4 SWAP3 POP POP POP JUMP JUMPDEST PUSH0 DUP3 PUSH1 0x1F DUP4 ADD SLT PUSH2 0x6FC JUMPI PUSH2 0x6FB PUSH2 0x5D9 JUMP JUMPDEST JUMPDEST DUP2 CALLDATALOAD PUSH2 0x70C DUP5 DUP3 PUSH1 0x20 DUP7 ADD PUSH2 0x6A7 JUMP JUMPDEST SWAP2 POP POP SWAP3 SWAP2 POP POP JUMP JUMPDEST PUSH0 PUSH1 0x20 DUP3 DUP5 SUB SLT ISZERO PUSH2 0x72A JUMPI PUSH2 0x729 PUSH2 0x4EA JUMP JUMPDEST JUMPDEST PUSH0 DUP3 ADD CALLDATALOAD PUSH8 0xFFFFFFFFFFFFFFFF DUP2 GT ISZERO PUSH2 0x747 JUMPI PUSH2 0x746 PUSH2 0x4EE JUMP JUMPDEST JUMPDEST PUSH2 0x753 DUP5 DUP3 DUP6 ADD PUSH2 0x6E8 JUMP JUMPDEST SWAP2 POP POP SWAP3 SWAP2 POP POP JUMP JUMPDEST PUSH0 DUP2 MLOAD SWAP1 POP SWAP2 SWAP1 POP JUMP JUMPDEST PUSH0 DUP3 DUP3 MSTORE PUSH1 0x20 DUP3 ADD SWAP1 POP SWAP3 SWAP2 POP POP JUMP JUMPDEST DUP3 DUP2 DUP4 MCOPY PUSH0 DUP4 DUP4 ADD MSTORE POP POP POP JUMP JUMPDEST PUSH0 PUSH2 0x78E DUP3 PUSH2 0x75C JUMP JUMPDEST PUSH2 0x798 DUP2 DUP6 PUSH2 0x766 JUMP JUMPDEST SWAP4 POP PUSH2 0x7A8 DUP2 DUP6 PUSH1 0x20 DUP7 ADD PUSH2 0x776 JUMP JUMPDEST PUSH2 0x7B1 DUP2 PUSH2 0x5E1 JUMP JUMPDEST DUP5 ADD SWAP2 POP POP SWAP3 SWAP2 POP POP JUMP JUMPDEST PUSH32 0x4E487B7100000000000000000000000000000000000000000000000000000000 PUSH0 MSTORE PUSH1 0x21 PUSH1 0x4 MSTORE PUSH1 0x24 PUSH0 REVERT JUMPDEST PUSH1 0x3 DUP2 LT PUSH2 0x7FA JUMPI PUSH2 0x7F9 PUSH2 0x7BC JUMP JUMPDEST JUMPDEST POP JUMP JUMPDEST PUSH0 DUP2 SWAP1 POP PUSH2 0x80A DUP3 PUSH2 0x7E9 JUMP JUMPDEST SWAP2 SWAP1 POP JUMP JUMPDEST PUSH0 PUSH2 0x819 DUP3 PUSH2 0x7FD JUMP JUMPDEST SWAP1 POP SWAP2 SWAP1 POP JUMP JUMPDEST PUSH2 0x829 DUP2 PUSH2 0x80F JUMP JUMPDEST DUP3 MSTORE POP POP JUMP JUMPDEST PUSH0 PUSH1 0x60 DUP3 ADD SWAP1 POP PUSH2 0x842 PUSH0 DUP4 ADD DUP7 PUSH2 0x5B1 JUMP JUMPDEST DUP2 DUP2 SUB PUSH1 0x20 DUP4 ADD MSTORE PUSH2 0x854 DUP2 DUP6 PUSH2 0x784 JUMP JUMPDEST SWAP1 POP PUSH2 0x863 PUSH1 0x40 DUP4 ADD DUP5 PUSH2 0x820 JUMP JUMPDEST SWAP5 SWAP4 POP POP POP POP JUMP JUMPDEST PUSH32 0x546F646F20646F6573206E6F7420657869737400000000000000000000000000 PUSH0 DUP3 ADD MSTORE POP JUMP JUMPDEST PUSH0 PUSH2 0x89F PUSH1 0x13 DUP4 PUSH2 0x766 JUMP JUMPDEST SWAP2 POP PUSH2 0x8AA DUP3 PUSH2 0x86B JUMP JUMPDEST PUSH1 0x20 DUP3 ADD SWAP1 POP SWAP2 SWAP1 POP JUMP JUMPDEST PUSH0 PUSH1 0x20 DUP3 ADD SWAP1 POP DUP2 DUP2 SUB PUSH0 DUP4 ADD MSTORE PUSH2 0x8CC DUP2 PUSH2 0x893 JUMP JUMPDEST SWAP1 POP SWAP2 SWAP1 POP JUMP JUMPDEST PUSH32 0x4E487B7100000000000000000000000000000000000000000000000000000000 PUSH0 MSTORE PUSH1 0x22 PUSH1 0x4 MSTORE PUSH1 0x24 PUSH0 REVERT JUMPDEST PUSH0 PUSH1 0x2 DUP3 DIV SWAP1 POP PUSH1 0x1 DUP3 AND DUP1 PUSH2 0x917 JUMPI PUSH1 0x7F DUP3 AND SWAP2 POP JUMPDEST PUSH1 0x20 DUP3 LT DUP2 SUB PUSH2 0x92A JUMPI PUSH2 0x929 PUSH2 0x8D3 JUMP JUMPDEST JUMPDEST POP SWAP2 SWAP1 POP JUMP JUMPDEST PUSH0 DUP2 SWAP1 POP DUP2 PUSH0 MSTORE PUSH1 0x20 PUSH0 KECCAK256 SWAP1 POP SWAP2 SWAP1 POP JUMP JUMPDEST PUSH0 PUSH1 0x20 PUSH1 0x1F DUP4 ADD DIV SWAP1 POP SWAP2 SWAP1 POP JUMP JUMPDEST PUSH0 DUP3 DUP3 SHL SWAP1 POP SWAP3 SWAP2 POP POP JUMP JUMPDEST PUSH0 PUSH1 0x8 DUP4 MUL PUSH2 0x98C PUSH32 0xFFFFFFFFFFFFFFFFFFFFFFFFFFFFFFFFFFFFFFFFFFFFFFFFFFFFFFFFFFFFFFFF DUP3 PUSH2 0x951 JUMP JUMPDEST PUSH2 0x996 DUP7 DUP4 PUSH2 0x951 JUMP JUMPDEST SWAP6 POP DUP1 NOT DUP5 AND SWAP4 POP DUP1 DUP7 AND DUP5 OR SWAP3 POP POP POP SWAP4 SWAP3 POP POP POP JUMP JUMPDEST PUSH0 DUP2 SWAP1 POP SWAP2 SWAP1 POP JUMP JUMPDEST PUSH0 PUSH2 0x9D1 PUSH2 0x9CC PUSH2 0x9C7 DUP5 PUSH2 0x4F2 JUMP JUMPDEST PUSH2 0x9AE JUMP JUMPDEST PUSH2 0x4F2 JUMP JUMPDEST SWAP1 POP SWAP2 SWAP1 POP JUMP JUMPDEST PUSH0 DUP2 SWAP1 POP SWAP2 SWAP1 POP JUMP JUMPDEST PUSH2 0x9EA DUP4 PUSH2 0x9B7 JUMP JUMPDEST PUSH2 0x9FE PUSH2 0x9F6 DUP3 PUSH2 0x9D8 JUMP JUMPDEST DUP5 DUP5 SLOAD PUSH2 0x95D JUMP JUMPDEST DUP3 SSTORE POP POP POP POP JUMP JUMPDEST PUSH0 SWAP1 JUMP JUMPDEST PUSH2 0xA12 PUSH2 0xA06 JUMP JUMPDEST PUSH2 0xA1D DUP2 DUP5 DUP5 PUSH2 0x9E1 JUMP JUMPDEST POP POP POP JUMP JUMPDEST JUMPDEST DUP2 DUP2 LT ISZERO PUSH2 0xA40 JUMPI PUSH2 0xA35 PUSH0 DUP3 PUSH2 0xA0A JUMP JUMPDEST PUSH1 0x1 DUP2 ADD SWAP1 POP PUSH2 0xA23 JUMP JUMPDEST POP POP JUMP JUMPDEST PUSH1 0x1F DUP3 GT ISZERO PUSH2 0xA85 JUMPI PUSH2 0xA56 DUP2 PUSH2 0x930 JUMP JUMPDEST PUSH2 0xA5F DUP5 PUSH2 0x942 JUMP JUMPDEST DUP2 ADD PUSH1 0x20 DUP6 LT ISZERO PUSH2 0xA6E JUMPI DUP2 SWAP1 POP JUMPDEST PUSH2 0xA82 PUSH2 0xA7A DUP6 PUSH2 0x942 JUMP JUMPDEST DUP4 ADD DUP3 PUSH2 0xA22 JUMP JUMPDEST POP POP JUMPDEST POP POP POP JUMP JUMPDEST PUSH0 DUP3 DUP3 SHR SWAP1 POP SWAP3 SWAP2 POP POP JUMP JUMPDEST PUSH0 PUSH2 0xAA5 PUSH0 NOT DUP5 PUSH1 0x8 MUL PUSH2 0xA8A JUMP JUMPDEST NOT DUP1 DUP4 AND SWAP2 POP POP SWAP3 SWAP2 POP POP JUMP JUMPDEST PUSH0 PUSH2 0xABD DUP4 DUP4 PUSH2 0xA96 JUMP JUMPDEST SWAP2 POP DUP3 PUSH1 0x2 MUL DUP3 OR SWAP1 POP SWAP3 SWAP2 POP POP JUMP JUMPDEST PUSH2 0xAD6 DUP3 PUSH2 0x75C JUMP JUMPDEST PUSH8 0xFFFFFFFFFFFFFFFF DUP2 GT ISZERO PUSH2 0xAEF JUMPI PUSH2 0xAEE PUSH2 0x5F1 JUMP JUMPDEST JUMPDEST PUSH2 0xAF9 DUP3 SLOAD PUSH2 0x900 JUMP JUMPDEST PUSH2 0xB04 DUP3 DUP3 DUP6 PUSH2 0xA44 JUMP JUMPDEST PUSH0 PUSH1 0x20 SWAP1 POP PUSH1 0x1F DUP4 GT PUSH1 0x1 DUP2 EQ PUSH2 0xB35 JUMPI PUSH0 DUP5 ISZERO PUSH2 0xB23 JUMPI DUP3 DUP8 ADD MLOAD SWAP1 POP JUMPDEST PUSH2 0xB2D DUP6 DUP3 PUSH2 0xAB2 JUMP JUMPDEST DUP7 SSTORE POP PUSH2 0xB94 JUMP JUMPDEST PUSH1 0x1F NOT DUP5 AND PUSH2 0xB43 DUP7 PUSH2 0x930 JUMP JUMPDEST PUSH0 JUMPDEST DUP3 DUP2 LT ISZERO PUSH2 0xB6A JUMPI DUP5 DUP10 ADD MLOAD DUP3 SSTORE PUSH1 0x1 DUP3 ADD SWAP2 POP PUSH1 0x20 DUP6 ADD SWAP5 POP PUSH1 0x20 DUP2 ADD SWAP1 POP PUSH2 0xB45 JUMP JUMPDEST DUP7 DUP4 LT ISZERO PUSH2 0xB87 JUMPI DUP5 DUP10 ADD MLOAD PUSH2 0xB83 PUSH1 0x1F DUP10 AND DUP3 PUSH2 0xA96 JUMP JUMPDEST DUP4 SSTORE POP JUMPDEST PUSH1 0x1 PUSH1 0x2 DUP9 MUL ADD DUP9 SSTORE POP POP POP JUMPDEST POP POP POP POP POP POP JUMP JUMPDEST PUSH0 PUSH1 0x40 DUP3 ADD SWAP1 POP PUSH2 0xBAF PUSH0 DUP4 ADD DUP6 PUSH2 0x5B1 JUMP JUMPDEST DUP2 DUP2 SUB PUSH1 0x20 DUP4 ADD MSTORE PUSH2 0xBC1 DUP2 DUP5 PUSH2 0x784 JUMP JUMPDEST SWAP1 POP SWAP4 SWAP3 POP POP POP JUMP JUMPDEST PUSH32 0x4E487B7100000000000000000000000000000000000000000000000000000000 PUSH0 MSTORE PUSH1 0x11 PUSH1 0x4 MSTORE PUSH1 0x24 PUSH0 REVERT JUMPDEST PUSH0 PUSH2 0xC01 DUP3 PUSH2 0x4F2 JUMP JUMPDEST SWAP2 POP PUSH32 0xFFFFFFFFFFFFFFFFFFFFFFFFFFFFFFFFFFFFFFFFFFFFFFFFFFFFFFFFFFFFFFFF DUP3 SUB PUSH2 0xC33 JUMPI PUSH2 0xC32 PUSH2 0xBCA JUMP JUMPDEST JUMPDEST PUSH1 0x1 DUP3 ADD SWAP1 POP SWAP2 SWAP1 POP JUMP INVALID LOG2 PUSH5 0x6970667358 0x22 SLT KECCAK256 0xFB 0xB8 LOG0 XOR EXTCODEHASH CALLDATALOAD 0x23 0xEF 0xF SWAP12 OR ADD 0x2C SELFDESTRUCT 0xAD 0xD5 SLT SWAP8 PUSH4 0x89B27678 0xF7 0xB5 SSTORE KECCAK256 0xE 0x4B SUB 0xE2 PUSH1 0x64 PUSH20 0x6F6C634300081A00330000000000000000000000 "
		},
		"gasEstimates": {
			"creation": {
				"codeDepositCost": "637600",
				"executionCost": "668",
				"totalCost": "638268"
			},
			"external": {
				"addTodo(string)": "infinite",
				"getTodo(uint256)": "infinite",
				"todoids(uint256)": "infinite",
				"todos(uint256)": "infinite",
				"updateStatus(uint256,uint8)": "26999"
			}
		},
		"methodIdentifiers": {
			"addTodo(string)": "95ffebf5",
			"getTodo(uint256)": "dd68afb6",
			"todoids(uint256)": "5e2a3dd5",
			"todos(uint256)": "bc8bc2b4",
			"updateStatus(uint256,uint8)": "3a1b3d31"
		}
	},
	"abi": [
		{
			"anonymous": false,
			"inputs": [
				{
					"indexed": false,
					"internalType": "uint256",
					"name": "id",
					"type": "uint256"
				},
				{
					"indexed": false,
					"internalType": "string",
					"name": "content",
					"type": "string"
				}
			],
			"name": "TodoAdded",
			"type": "event"
		},
		{
			"inputs": [
				{
					"internalType": "string",
					"name": "_content",
					"type": "string"
				}
			],
			"name": "addTodo",
			"outputs": [],
			"stateMutability": "nonpayable",
			"type": "function"
		},
		{
			"inputs": [
				{
					"internalType": "uint256",
					"name": "_id",
					"type": "uint256"
				}
			],
			"name": "getTodo",
			"outputs": [
				{
					"internalType": "uint256",
					"name": "",
					"type": "uint256"
				},
				{
					"internalType": "string",
					"name": "",
					"type": "string"
				},
				{
					"internalType": "enum todoList.Status",
					"name": "",
					"type": "uint8"
				}
			],
			"stateMutability": "view",
			"type": "function"
		},
		{
			"inputs": [
				{
					"internalType": "uint256",
					"name": "",
					"type": "uint256"
				}
			],
			"name": "todoids",
			"outputs": [
				{
					"internalType": "uint256",
					"name": "",
					"type": "uint256"
				}
			],
			"stateMutability": "view",
			"type": "function"
		},
		{
			"inputs": [
				{
					"internalType": "uint256",
					"name": "",
					"type": "uint256"
				}
			],
			"name": "todos",
			"outputs": [
				{
					"internalType": "uint256",
					"name": "id",
					"type": "uint256"
				},
				{
					"internalType": "string",
					"name": "content",
					"type": "string"
				},
				{
					"internalType": "enum todoList.Status",
					"name": "status",
					"type": "uint8"
				}
			],
			"stateMutability": "view",
			"type": "function"
		},
		{
			"inputs": [
				{
					"internalType": "uint256",
					"name": "_id",
					"type": "uint256"
				},
				{
					"internalType": "enum todoList.Status",
					"name": "_status",
					"type": "uint8"
				}
			],
			"name": "updateStatus",
			"outputs": [],
			"stateMutability": "nonpayable",
			"type": "function"
		}
	]
}